:020000040800F2
:10000000300500204901000831250008332500088B
:10001000372500083B2500083F25000800000000A8
:100020000000000000000000000000004325000860
:100030004525000800000000472500084925000864
:100040006301000863010008630100086301000800
:1000500063010008630100086301000863010008F0
:1000600063010008630100086301000863010008E0
:1000700063010008630100086301000863010008D0
:1000800063010008630100086301000863010008C0
:1000900063010008630100086301000863010008B0
:1000A000630100084B250008630100086301000894
:1000B00063010008F3240008092500086301000813
:1000C0006301000863010008630100086301000880
:1000D0006301000863010008630100086301000870
:1000E0006301000863010008630100086301000860
:1000F0006301000863010008630100086301000850
:10010000630100086301000863010008630100083F
:10011000630100086301000863010008630100082F
:10012000630100086301000863010008630100081F
:10013000DFF810D006F08CFC004800474D1D000889
:10014000AFF300803005002006488047064800478E
:10015000FEE7FEE7FEE7FEE7FEE7FEE7FEE7FEE777
:10016000FEE7FEE74B020008310100080CB5002055
:10017000019000906C48006840F480306A49086043
:1001800000BF6948006800F4003000900198401CEE
:100190000190009818B90198B0F5A06FF1D16248AC
:1001A000006800F4003010B10120009001E0002050
:1001B00000900098012843D15C48006840F010008E
:1001C0005A4908600846006820F0030008600846A5
:1001D000006840F002000860534840685249486097
:1001E0000846406848600846406840F480604860BF
:1001F0000846406820F47C1048600846406840F497
:10020000E81048600846006840F08070086000BF51
:100210004548006800F000700028F9D04248406866
:1002200020F00300404948600846406840F0020062
:10023000486000BF3C48406800F00C000828F9D135
:100240000CBD10B5FFF792FF10BD10B53648006821
:1002500040F00100344908600846406834490840CD
:100260003149486008460068324908402E49086014
:100270000846006820F4802008600846406820F4A2
:10028000FE0048604FF41F008860FFF7DAFF4FF070
:1002900000602949086010BD10B50021002000222F
:1002A000214B5B6803F00C0121B1042906D0082919
:1002B00028D107E0214B224C236027E01F4B204C24
:1002C000236023E0184B5B6803F47010164B5B68E7
:1002D00003F48032022303EB904022B9194B4343CD
:1002E000174C23600DE0104B5B6803F4003323B11F
:1002F000144B4343124C236003E0104B4343104C18
:10030000236003E00D4B0E4C236000BF00BF064B83
:100310005B68C3F303130C4CE15C094B1B68CB40D7
:10032000074C236010BD0000001002400020024076
:100330000000FFF8FFFFF6FE08ED00E000127A0073
:100340000000002000093D00040000203149014365
:10035000314A1160704770B5002100230F22C47824
:1003600004B32D4C246804F4E064C4F5E064210A6D
:10037000C1F10403CA40447804FA03F184781440BC
:1003800021430901254C0678A155047804F01F0586
:100390000124AC4005786D11AD0005F1E025C5F8EC
:1003A000004109E0047804F01F050124AC401C4D15
:1003B0000678761145F8264070BD1A4A0A40024375
:1003C000154B1B1F1A60704739B1134A121D126872
:1003D0000243114B1B1D1A6006E00F4A121D1268E2
:1003E00082430D4B1B1D1A607047042808D14FF043
:1003F000E021096941F004014FF0E022116107E0BA
:100400004FF0E021096921F004014FF0E022116171
:10041000704700000000FA050CED00E000E400E089
:1004200080E100E080FFFF1F10B50446CC48844205
:1004300008D10121042000F02DFB0021042000F050
:1004400029FB46E0C748844208D10121082000F07A
:1004500021FB0021082000F01DFB3AE0C248844245
:1004600008D10121102000F015FB0021102000F020
:1004700011FB2EE0BD48844208D10121202000F06C
:1004800009FB0021202000F005FB22E0B84884424F
:1004900008D10121402000F0FDFA0021402000F0A9
:1004A000F9FA16E0B348844208D10121802000F017
:1004B000F1FA0021802000F0EDFA0AE0AE48844213
:1004C00007D10121801500F0E5FA0021A01500F008
:1004D000E1FA10BD10B50121084600F0DBFA002159
:1004E000012000F0D7FA10BD2DE9F04102460025A9
:1004F0000026002000230024002791F803C00CF000
:100500000F0591F803C00CF0100CBCF1000F03D0E4
:1005100091F802C04CEA050591F800C0BCF1000F4B
:1005200031D0146800202BE04FF0010C0CFA00F3DE
:10053000B1F800C00CEA03069E4220D183004FF0C0
:100540000F0C0CFA03F7BC4305FA03FC4CEA040455
:1005500091F803C0BCF1280F06D14FF0010C0CFA42
:1005600000FCC2F814C00AE091F803C0BCF1480FC7
:1005700005D14FF0010C0CFA00FCC2F810C0401C71
:100580000828D1D31460B1F800C0BCF1FF0F34DDEE
:10059000546800202EE000F1080C4FF0010808FA22
:1005A0000CF3B1F800C00CEA03069E4221D183008F
:1005B0004FF00F0C0CFA03F7BC4305FA03FC4CEAAE
:1005C000040491F803C0BCF1280F05D100F1080C18
:1005D00008FA0CF8C2F8148091F803C0BCF1480F77
:1005E00007D100F1080C4FF0010808FA0CF8C2F826
:1005F0001080401C0828CED35460BDE8F0814FF62F
:10060000FF710180022181700421C1707047024690
:10061000002093680B400BB1012000E000207047E0
:100620000146886880B2704702460020D3680B40BC
:100630000BB1012000E0002070470146C86880B27D
:10064000704701617047416170470AB1016100E084
:1006500041617047C16070474FF480320A43826144
:100660008161826182698269704702460020434B42
:1006700018684FF68073184040EA021008433F4B59
:10068000186070473E49C8617047F0B50A460023BC
:1006900000240021002500F00046B6F1004F02D1F1
:1006A000364EF16901E0354E7168C0F3034583B2FF
:1006B00000F44016B6F5401F08D121F070612F4EAE
:1006C000766826F070662D4F7E6012E000F480168A
:1006D000B6F5801F06D1032606FA05F4A14341F0C2
:1006E000706106E0460D360103FA06F6B14341F0AB
:1006F000706122B1460D360103FA06F6314300F06F
:100700000046B6F1004F02D11C4EF16101E01B4ED4
:100710007160F0BD30B500228B071C0F0F2303FA68
:1007200004F2164B08338C1053F824309343134CC7
:1007300008348D1044F8253023468C1053F82430AB
:100740008C07240F00FA04F423430C4C08348D105A
:1007500044F8253030BD0A49DC310860704700009C
:1007600000080140000C014000100140001401404D
:1007700000180140001C0140002001400000014021
:1007800000002042DF48006840F00100DD490860B9
:1007900008464068DC490840DA4948600846006875
:1007A000DA490840D74908600846006820F48020EC
:1007B00008600846406820F4FE0048604FF41F00BF
:1007C00088607047CF49096821F48031CD4A1160B3
:1007D0001146096821F480211160B0F5803F03D0F3
:1007E000B0F5802F0ED106E0C649096841F480318A
:1007F000C44A116007E0C349096841F4A021C14A15
:10080000116000E000BF00BF704710B50146002234
:10081000002300204A11012A02D1BA4C236806E0C5
:10082000022A02D1B74C236A01E0B64C636A01F098
:100830001F02012494401C400CB1012000E0002064
:1008400010BD38B5002000900024002500BF3120E5
:10085000FFF7DBFF05460098401C00900098B0F5BC
:10086000A06F01D0002DF2D03120FFF7CEFF08B1EC
:10087000012400E00024204638BD01460020A14AA2
:10088000106820F0F80040EAC10010607047A049ED
:1008900008607047024600209A4B586820F47C108C
:1008A00042EA01031843974B58607047984908661D
:1008B000704701460020934A506820F00300084327
:1008C000506070478F48406800F00C007047014648
:1008D00000208C4A506820F0F000084350607047B8
:1008E00001460020874A506820F4E06008435060C9
:1008F000704701460020834A506820F4605040EA67
:10090000C1005060704729B17E4A527A02437D4B44
:100910005A7204E07B4A527A82437A4B5A72704789
:100920007B49D8310860704701460020754A5068FD
:1009300020F440400843506070470021714A203243
:100940001170704A82F82010012802D004280AD1C0
:1009500004E001216B4A2032117005E00521694A4B
:100960002032117000E000BF00BF70476949086085
:1009700070476449096A0143624A116270476549D8
:1009800044390860704730B500210022002400235C
:100990005C4D6D6805F00C0121B1042905D00829D2
:1009A00023D105E05C4D056022E05B4D05601FE052
:1009B000544D6D6805F47012524D6D6805F4803425
:1009C000022505EB92421CB9544D554305600BE0DE
:1009D0004C4D6D6805F400351DB1504D5543056013
:1009E00002E04D4D5543056002E04B4D056000BFF0
:1009F00000BF444D6D6805F0F0010909484D6B5C7E
:100A00000568DD4045603F4D6D6805F4E061090A09
:100A1000434D6B5C4568DD4085603A4D6D6805F47B
:100A20006051C90A3E4D6B5C4568DD40C560354D7F
:100A30006D6805F44041890B3A4D6B5CC568B5FBA8
:100A4000F3F5056130BD29B12E4A526902432D4BA1
:100A50005A6104E02B4A526982432A4B5A6170471B
:100A600029B1284A92690243264B9A6104E0254A3B
:100A700092698243234B9A61704729B1214AD26916
:100A80000243204BDA6104E01E4AD26982431D4BC7
:100A9000DA61704729B11B4AD2680243194BDA6008
:100AA00004E0184AD2688243164BDA60704729B1D5
:100AB000144A12690243134B1A6104E0114A126985
:100AC0008243104B1A6170471249403908607047E1
:100AD0000F49C86470470B49C87170470948406A9C
:100AE00040F0807007494862704701460020054A7F
:100AF00092680A400AB1012000E0002070470149D5
:100B000088727047001002400000FFF8FFFFF6FEF9
:100B1000000042428004424200127A0000093D0077
:100B2000140000202400002010B50446FE48844232
:100B300008D10121C014FFF7ADFF0021E014FFF739
:100B4000A9FFC4E0B4F1804F08D101210846FFF7A6
:100B5000AEFF00210120FFF7AAFFB8E0F34884426E
:100B600008D101210220FFF7A2FF00210220FFF798
:100B70009EFFACE0EE48844208D101210420FFF73B
:100B800096FF00210420FFF792FFA0E0E94884428D
:100B900008D101210820FFF78AFF00210820FFF774
:100BA00086FF94E0E448844208D101211020FFF739
:100BB0007EFF00211020FFF77AFF88E0DF488442A3
:100BC00008D101212020FFF772FF00212020FFF72C
:100BD0006EFF7CE0DA48844208D101214014FFF71F
:100BE00059FF00216014FFF755FF70E0D54884429B
:100BF00009D10121C804FFF74DFF00214FF4002067
:100C0000FFF748FF63E0D048844209D1012108057D
:100C1000FFF740FF00214FF48010FFF73BFF56E045
:100C2000CA48844209D101214805FFF733FF00215A
:100C30004FF40010FFF72EFF49E0C548844208D169
:100C400001214020FFF733FF00214020FFF72FFF55
:100C50003DE0C048844208D101218020FFF727FFF2
:100C600000218020FFF723FF31E0BB48844208D1F8
:100C700001218015FFF71BFF0021A015FFF717FFCB
:100C800025E0B648844209D101210804FFF702FF9C
:100C900000214FF48030FFF7FDFE18E0B048844299
:100CA00009D101214804FFF7F5FE00214FF400307F
:100CB000FFF7F0FE0BE0AB48844208D10121880425
:100CC000FFF7E8FE00214FF48020FFF7E3FE10BDA0
:100CD00000220288944B98420ED0994B98420BD038
:100CE000B0F1804F08D0914B984205D0904B98427C
:100CF00002D0904B984204D14FF68F731A404B8824
:100D00001A438D4B984207D08C4B984204D04FF633
:100D1000FF431A40CB881A4302808B8883850B8857
:100D20000385814B98420BD0854B984208D08B4B62
:100D3000984205D08A4B984202D08A4B984201D102
:100D40000B7A038601238382704770B5002400224A
:100D50000023058C4FF6FE7635400584028C83888F
:100D6000048B4FF68F752C40B51E2C400D882C43FC
:100D7000751E2A400D892A434D882A436A4DA84290
:100D80000BD06F4DA84208D0744DA84205D0744DC9
:100D9000A84202D0734DA84213D14FF6F7752A40EE
:100DA0004D892A434FF6FB752A408D882A434FF61A
:100DB000FF652B404FF6FF552B408D892B43CD8986
:100DC0002B4383800483CD888586028470BD70B5F3
:100DD000002400220023058C4FF6EF763540058471
:100DE000028C8388048B48F6FF752C404FF6FF4534
:100DF0002C400D884FF6FF7606EA05252C434FF66A
:100E0000DF752A400D8906EA05152A434D8806EA52
:100E100005152A43444DA84202D0494DA8421DD190
:100E20004FF67F752A404D894FF6FF7606EA051585
:100E30002A434FF6BF752A408D8806EA05152A43D6
:100E40004FF6FF352B404FF2FF752B408D8906EA98
:100E500085052B43CD8906EA85052B4383800483D2
:100E6000CD880587028470BD70B500240022002360
:100E7000058C4FF6FF6635400584028C8388848B91
:100E80004FF68F752C404FF6FC752C400D882C4387
:100E90004FF6FF552A400D894FF6FF7606EA0525E5
:100EA0002A434D8806EA05252A431F4DA84202D051
:100EB000234DA8421DD14FF2FF752A404D894FF6B0
:100EC000FF7606EA05252A434FF6FF352A408D882E
:100ED00006EA05252A434EF6FF752B404DF6FF75B1
:100EE0002B408D8906EA05152B43CD8906EA0515A9
:100EF0002B4383808483CD888587028470BD70B541
:100F0000002200230024058C4EF6FF763540058430
:100F1000038C8488828B48F6FF752A404FF6FF4584
:100F20002A400D8820E00000002C01400004004011
:100F300000080040000C0040001000400014004079
:100F400000340140004C0140005001400054014079
:100F500000180040001C00400020004000400140FC
:100F600000440140004801404FF6FF7606EA05259F
:100F70002A434DF6FF752B400D8906EA05352B43B4
:100F80004D8806EA05352B43FA4DA84202D0FA4DAA
:100F9000A84208D14BF6FF752C408D894FF6FF769D
:100FA00006EA85152C4384808283CD88A0F84050C2
:100FB000038470BD828B4FF2FF331A408283828B91
:100FC0004FF6FF7303EA01231A4382837047F0B59B
:100FD0000C461546002200210026078C4EF6FF7CA9
:100FE00007EA0C070784828B018C4FF6FF7707EA2C
:100FF000043640F6FF473A404FF6FF7707EA0527E9
:101000003A434FF6FF7707EA03373A43D94FB842DE
:101010000ED0D94FB8420BD0B0F1804F08D0D74F87
:10102000B84205D0D64FB84202D0D64FB84206D10A
:101030004DF6FF77394046F48057394305E047F6CF
:10104000FF57394044F48057394382830184F0BD0F
:10105000828B4FF6F3731A408283828B0A4382831A
:101060007047F0B50C461546002200210026078C7B
:101070004FF6FF6C07EA0C070784828B018C4FF652
:10108000FF7707EA04264FF60C773A404FF6FF77D2
:1010900007EA03172F433A43B64FB8420ED0B64F74
:1010A000B8420BD0B0F1804F08D0B44FB84205D051
:1010B000B34FB84202D0B34FB84206D14FF6FF57F4
:1010C000394046F48077394305E04FF2FF57394005
:1010D00044F48077394382830184F0BD028B4FF260
:1010E000FF331A400283028B4FF6FF7303EA01239A
:1010F0001A4302837047F0B50C46154600220021C2
:101100000026078C4FF6EF7C07EA0C070784028B5A
:10111000018C4FF6FF7707EA041640F6FF473A4086
:101120004FF6FF7707EA03373A434FF6FF7707EAB0
:1011300005273A438F4FB8420ED08F4FB8420BD09D
:10114000B0F1804F08D08D4FB84205D08C4FB842D7
:1011500002D08C4FB84206D14FF6DF77394046F0C7
:101160001007394305E04FF65F77394044F0100728
:10117000394302830184F0BD028B4FF6F3731A40AA
:101180000283028B0A4302837047F0B50C46154672
:1011900000220021068C4FF6FE773E400684028B2B
:1011A000018C4FF60C7632407E1C06EA03162E4365
:1011B0003243704EB0420ED06F4EB0420BD0B0F101
:1011C000804F08D06D4EB04205D06D4EB04202D077
:1011D0006C4EB04206D14FF6FD76314044F0010628
:1011E000314305E04FF6F576314044F001063143D6
:1011F00002830184F0BD70B505460C465D4885420A
:101200000ED05D4885420BD0B5F1804F08D05B48C9
:10121000854205D05A48854202D05A48854200D1BD
:1012200000E000BF208850B92389A2886188284641
:10123000FFF7ABFFE1882846FFF79EFF25E02088F7
:1012400004280AD12389A28861882846FFF753FF22
:10125000E1882846FFF742FF17E0208808280AD1D6
:101260002389A28861882846FFF7FBFEE18828468B
:10127000FFF7EEFE09E02389A28861882846FFF780
:10128000A6FEE1882846FFF795FE70BD2DE9F041E6
:1012900005460C4600260127608808B9022600E0B2
:1012A0000026A088012801D1022700E0012720881C
:1012B000A0B92389A28861882846FFF766FFE188E4
:1012C0002846FFF759FF23893A4631462846FFF75B
:1012D00012FFE1882846FFF701FF13E02389A28867
:1012E00061882846FFF707FFE1882846FFF7F6FEEA
:1012F00023893A4631462846FFF747FFE1882846CA
:10130000FFF73AFFBDE8F0810A884B881A438B88C3
:101310001A43CB881A430B891A434B891A438B898A
:101320001A43A0F8442070474FF6FF7181800021D6
:101330000180C1804180017270470021018041809D
:101340008180C180018141818181C18170470021FB
:1013500001804180012181800021C180018170478D
:101360000021018041808180C18001814181818192
:1013700070470000002C0140003401400004004090
:1013800000080040000C004021B1028842F0010238
:10139000028004E002884FF6FE731A400280704714
:1013A00031B1B0F8442042F40042A0F8442005E0F6
:1013B000B0F84420C2F30E02A0F8442070471AB1DE
:1013C00083890B43838102E083898B438381704748
:1013D0008182704741EA0203A0F8483070471AB191
:1013E00083890B43838102E083898B438381704728
:1013F00001894FF6F8721140018170470A460021B9
:1014000001894FF68F73194011430181704730B540
:1014100004460D4629462046FFF7F0FF208940F09C
:101420000700208130BD2DE9F04104460D461646E7
:101430001F46602D06D13B46012231462046FFF76C
:101440005AFE05E03B46012231462046FFF79DFE4D
:1014500029462046FFF7D2FF208940F0070020816F
:10146000BDE8F08130B50C4600210189C9B24FF6C4
:10147000FF7505EA0325154325432943018130BD46
:101480002DE9F04105460E4617469846002443468E
:101490003A4631462846FFF7E5FF2C894FF6F870AB
:1014A000044044F007044FF68F70044044F0700489
:1014B0002C81BDE8F081F0B504460D4616461F4666
:1014C0003B46324629462046FFF7CCFF208940F4B0
:1014D00080402081F0BD0185828270470A4600214C
:1014E00001884FF68F731940114301807047F0B5A2
:1014F0000C4615461E460021002200230189028B5E
:10150000038C4FF6F877394021434FF6FC473A40B9
:1015100040F201173A434FF6DD773B404FF6FF7735
:1015200007EA06172F433B43018102830384F0BD82
:101530000A460021018B4FF68F7319401143018336
:1015400070470A460021018B48F6FF7319404FF699
:10155000FF7303EA02231943018370470A460021FF
:10156000818B4FF68F7319401143818370470A4670
:101570000021818B48F6FF7319404FF6FF7303EA91
:10158000022319438183704721B1028842F080020F
:10159000028004E002884FF67F731A400280704791
:1015A00021B1828842F00402828004E082884FF6F2
:1015B000FB731A408280704721B1828842F0080292
:1015C000828004E082884FF6F7731A408280704769
:1015D00021B1828842F00102828004E082884FF6C5
:1015E000FE731A40828070470A460021018B4FF635
:1015F000F77319401143018370470A460021018B9C
:101600004FF2FF7319404FF6FF7303EA02231943A9
:10161000018370470A460021818B4FF6F77319400A
:101620001143818370470A460021818B4FF2FF737B
:1016300019404FF6FF7303EA022319438183704771
:101640000A460021018B4FF6FB73194011430183B9
:1016500070470A460021018B4FF6FF3319404FF6C1
:10166000FF7303EA02231943018370470A460021EE
:10167000818B4FF6FB7319401143818370470A46F3
:101680000021818B4FF6FF3319404FF6FF7303EAB9
:1016900002231943818370470A460021018B4FF6CC
:1016A0007F7319401143018370470A460021018B63
:1016B000C1F30E014FF6FF7303EA022319430183BE
:1016C00070470A460021818B4FF67F731940114302
:1016D000818370470A460021818BC1F30E014FF6CA
:1016E000FF7303EA02231943818370470A460021EE
:1016F000018C4FF6FD7319401143018470470A466F
:101700000021018C4FF6F773194011430184704793
:101710000A460021018C4FF6DF7319404FF6FF7324
:1017200003EA02131943018470470A460021018C21
:101730004FF67F7319404FF6FF7303EA0213194304
:10174000018470470A460021018C4FF6FF5319406F
:101750004FF6FF7303EA02231943018470470A46D8
:101760000021018C4FF2FF7319404FF6FF7303EA1B
:1017700002231943018470470A460021018C4DF66B
:10178000FF7319404FF6FF7303EA023319430184D4
:10179000704730B5002301248C40A3B2048C9C43D5
:1017A0000484048C02FA01F5ADB22C43048430BDEC
:1017B00030B5002304248C40A3B2048C9C430484E1
:1017C000048C02FA01F5ADB22C43048430BD70B52F
:1017D0000346002000241846183001258D40ACB285
:1017E0001D8CA5431D8409B1082909D100EB6100B6
:1017F000056825F0700505600568154305600EE075
:101800000D1FC5F34E052844056825F4E045056025
:1018100005684FF6FF7606EA02263543056070BD7F
:1018200021B1028842F00202028004E002884FF6F1
:10183000FD731A400280704721B1028842F0040211
:10184000028004E002884FF6FB731A400280704762
:1018500021B1828842F08002828004E082884FF6C3
:101860007F731A408280704702884FF6F7731A40E0
:10187000028002880A430280704782884FF68F7385
:101880001A40828082880A438280704702894FF61C
:10189000F8731A40028102890A4302817047028963
:1018A0004FF67F731A40028102890A430281704712
:1018B00081847047818570478186704701877047B2
:1018C00081877047A0F84010704702884FF6FF43A9
:1018D0001A40028002880A43028070470146888EBF
:1018E00070470146088F70470146888F7047014650
:1018F000B1F8400070470146888C70470146088D5A
:10190000704702460020138A0B400BB1012000E013
:1019100000207047CA430282704730B5024600205B
:1019200000230024158A05EA0103958905EA0104CC
:1019300013B10CB1012000E0002030BDCA43028287
:101940007047000010B50446FB48844209D10121CC
:101950008803FFF79FF800214FF48040FFF79AF8C3
:1019600032E0F648844209D101214804FFF79FF88C
:1019700000214FF40030FFF79AF825E0F048844248
:1019800009D101218804FFF792F800214FF480204B
:10199000FFF78DF818E0EB48844209D10121C80413
:1019A000FFF785F800214FF40020FFF780F80BE0E7
:1019B000E548844208D101210805FFF778F80021A5
:1019C0004FF48010FFF773F810BD2DE9F04786B093
:1019D00005460E460024A24600BFA1460027B08956
:1019E00000B100BF2F462C8A4CF6FF700440F088EF
:1019F00004432C82AC894EF6F3100440B088318940
:101A00000843718908430443AC81AC8A4FF6FF4018
:101A10000440B0890443AC8201A8FEF7B4FFC64875
:101A2000874202D1DDF810A001E0DDF80CA0A88902
:101A300000F4004040B10AEBCA0000EB0A10316824
:101A40004900B0FBF1F807E00AEBCA0000EB0A100E
:101A500031688900B0FBF1F86420B8FBF0F00401B4
:101A60002009642101FB1089A88900F4004040B1DD
:101A7000322000EBC900B0FBF1F000F00700044396
:101A800008E0322000EB09106421B0FBF1F000F017
:101A90000F0004432C8106B0BDE8F0874FF41651C7
:101AA000016000218180C18001810C2141810021E0
:101AB0008181704710B502460020108A4FF2FF0363
:101AC00018400B884C8823438C882343CC882343BD
:101AD0001843108210BD0021018041808180C180A7
:101AE000704721B1828942F40052828104E08289E8
:101AF0004DF6FF731A4082817047F0B5034600240B
:101B000000260025002040F66A17B94200D100BF28
:101B10001846C1F3421401F01F06012707FA06F523
:101B2000012C01D10C3004E0022C01D1103000E076
:101B300014301AB107682F43076002E00768AF430B
:101B40000760F0BD1AB1838A0B43838202E0838A67
:101B50008B4383827047028A4FF6F0731A400282E9
:101B6000028A0A430282704782894FF2FF731A4049
:101B7000828182890A438281704721B1828942F041
:101B80000202828104E082894FF6FD731A4082814D
:101B90007047028A4FF6DF731A400282028A0A43B4
:101BA0000282704721B1028A42F48042028204E03C
:101BB000028A4BF6FF731A4002827047C1F3080293
:101BC0008280704701468888C0F308007047818989
:101BD00041F0010181817047028BD2B20283028BF6
:101BE00042EA012202837047028B02F47F420283A1
:101BF000028B0A430283704721B1828A42F020029D
:101C0000828204E0828A4FF6DF731A408282704734
:101C100021B1828A42F01002828204E0828A4FF669
:101C2000EF731A408282704721B1828A42F0080223
:101C3000828204E0828A4FF6F7731A4082827047EC
:101C400021B1828942F40042828103E08289C2F399
:101C50000E028281704721B1828A42F40062828240
:101C600004E0828A4FF2FF731A4082827047828AB0
:101C70004FF6FB731A408282828A0A43828270473F
:101C800021B1828A42F00202828204E0828A4FF607
:101C9000FD731A408282704702460020B1F5007F32
:101CA00000D100BF13880B400BB1012000E00020E1
:101CB000704701F40072B2F5007F00D100BFCA4343
:101CC0000280704770B502460024002300250020E2
:101CD00040F66A16B14200D100BFC1F3421501F0CF
:101CE0001F03012606FA03F3012D02D19689334022
:101CF00006E0022D02D1168A334001E0968A334075
:101D00000C12012606FA04F41688344013B10CB103
:101D1000012000E0002070BD10B50022002340F635
:101D20006A14A14200D100BF0A1201249440A3B258
:101D3000DC43048010BD0000003801400044004036
:101D400000480040004C00400050004000F0A1F866
:101D500000BFFEE710B510221102094800F062F83A
:101D600010225102064800F05DF81022910204484A
:101D700000F058F81022D102014800F053F810BDCD
:101D8000000C014010B54FF480412448FEF75BFC85
:101D900018220821224800F045F818220421204882
:101DA00000F040F810BD3EB505460C46012108463E
:101DB000FEF763FE681E80B2ADF80400601E80B2BC
:101DC000ADF800000020ADF80600ADF8020069464D
:101DD0004FF08040FEF77CFF3EBD1FB56020ADF8A0
:101DE00000000120ADF802000020ADF808006946AF
:101DF0004FF08040FFF738F869464FF08040FFF71A
:101E00007EF80821C806FFF705FC0821C806FFF781
:101E10000AFC01218807FFF7B7FA1FBD000C01403B
:101E200000080140F8B504460D461646294884428C
:101E300004D101210420FEF713FE1EE0264884424F
:101E400004D101210820FEF70BFE16E0234884424E
:101E500004D101211020FEF703FE0EE02048844249
:101E600004D101212020FEF7FBFD06E01D4884423D
:101E700003D101214020FEF7F3FDADF800508DF8AD
:101E8000036003208DF8020069462046FEF72CFB14
:101E9000F8BD10B5FFF75EFFFFF774FF03214FF4A5
:101EA0007A70FFF780FFFFF798FF00F030FA00F03C
:101EB0001BF800F089FA04F01BF903F0C0FB4FF4A3
:101EC0002F7004F052F902F015FB0A2004F0D4F848
:101ED00010BD000000080140000C0140001001404E
:101EE00000140140001801401FB518224FF4007182
:101EF0001648FFF797FF042211021448FFF792FFDC
:101F000001218803FEF7ACFD4FF4E1300090002082
:101F1000ADF80400ADF80600ADF80800ADF80C000F
:101F20000C20ADF80A0069460948FFF74EFD012272
:101F300040F225510648FFF7E0FD01210448FFF774
:101F4000D0FD40210248FFF7B4FE1FBD000801404C
:101F50000038014010B514224FF48061FE48FFF7AD
:101F600061FF14224FF40061FB48FFF75BFF012281
:101F70009102F948FEF769FB0122D102F648FEF70B
:101F800064FB10BD10B50122D102F348FEF75DFBE2
:101F900001229102F048FEF758FB00224FF4006145
:101FA000ED48FEF752FB00224FF48061EA48FEF74D
:101FB0004CFB10BD10B500224FF40061E648FEF75F
:101FC00044FB01229102E448FEF73FFB0122D102CB
:101FD000E148FEF73AFB10BD70B50546002415E058
:101FE0008020204100EA05024FF40061DA48FEF744
:101FF0002CFB01229102D848FEF727FB00224FF468
:102000008061D548FEF721FB601CC4B2082CE7DBD9
:1020100001229102D048FEF718FB00224FF48061A4
:10202000CD48FEF712FB70BD10B50446FFF7AAFFBE
:102030007820FFF7D1FF0020FFF7CEFF2046FFF703
:10204000CBFFFFF7B7FF10BD10B50446FFF79AFFAF
:102050007820FFF7C1FF4020FFF7BEFF2046FFF7C3
:10206000BBFFFFF7A7FF10BD70B505460C4645F056
:10207000B000FFF7D9FF102141EA1410FFF7D4FF99
:1020800004F00F00FFF7D0FF70BD70B500240EE024
:1020900000212046FFF7E8FF002504E00020FFF7BD
:1020A000D3FF681CC5B2802DF8DB601CC4B2082CBD
:1020B000EEDB70BD2DE9F04105460E461746721E57
:1020C000D206110E6A1E5206100EFFF7CDFF002435
:1020D00009E0A7F12001A14A02EB0111085DFFF719
:1020E000B3FF601CC4B2082CF3DB721ED206110EC3
:1020F0006A1E012303EB4202D0B2FFF7B5FF0024B2
:102100000BE0A7F12001954A02EB011204F108014E
:10211000505CFFF799FF601CC4B2082CF1DBBDE8EE
:10212000F0812DE9F04107460E461546002407E0F0
:102130002A5D3019C1B23846FFF7BCFF601CC4B23B
:10214000285D0028F4D1BDE8F08110B502460120D9
:1021500000E050430B1EA1F10101FAD110BD2DE9A1
:10216000F04780460E4617461D46002415E0281B02
:10217000411E0A20FFF7E9FFB7FBF0F00A21B0FB90
:10218000F1F201FB120000F130093019C1B24A46E8
:102190004046FFF78FFF601CC4B2AC42E7DBBDE8EE
:1021A000F0872DE9F0478146884615461E46002DEA
:1021B00006DB2B2241464846FFF77CFF2F4605E011
:1021C0002D2241464846FFF775FF6F42002417E075
:1021D000301B411E0A20FFF7B8FFB7FBF0F00A21C1
:1021E000B0FBF1F201FB120000F1300A08EB040031
:1021F000401CC1B252464846FFF75CFF601CC4B2A7
:10220000B442E5DBBDE8F0872DE9F04781460E4694
:1022100090461F4600241DE0381B411E1020FFF78A
:1022200094FFB8FBF0F000F00F050A2D08DA05F175
:102230003000C2B23019C1B24846FFF73BFF07E099
:1022400005F13700C2B23019C1B24846FFF732FF7C
:10225000601CC4B2BC42DFDBBDE8F0872DE9F0476B
:1022600080460E4617461D46002412E0281B411EDC
:102270000220FFF76AFFB7FBF0F000F0010000F169
:1022800030093019C1B24A464046FFF713FF601CBF
:10229000C4B2AC42EADBBDE8F0872DE9F05F064648
:1022A0000F4690461C46DDF828A04FF0000BE117C2
:1022B00004EB5171C910A4EBC10131B92046E117FB
:1022C00004EB5171C1F3C70506E02046E11704EBAA
:1022D0005171C910491CCDB23D4614E02946304623
:1022E000FFF7C2FEB1460AE059460BF1010B1AF89E
:1022F0000100FFF7A9FE09F1010000F0FF09C14547
:10230000F2DB681CC5B2A542E8DBBDE8F09F70B502
:10231000002406E0002500E06D1CB5F57A7FFBD3B4
:10232000641CB4F57A7FF5D3FFF714FEAE20FFF7F7
:102330007BFED520FFF778FE8020FFF775FEA820F2
:10234000FFF772FE3F20FFF76FFED320FFF76CFE12
:102350000020FFF769FE03E0000C01405E770008F3
:102360004020FFF761FEA120FFF75EFEC820FFF7C7
:102370005BFEDA20FFF758FE1220FFF755FE8120A2
:10238000FFF752FECF20FFF74FFED920FFF74CFE9C
:10239000F120FFF749FEDB20FFF746FE3020FFF774
:1023A00043FEA420FFF740FEA620FFF73DFE8D2050
:1023B000FFF73AFE1420FFF737FEAF20FFF734FE99
:1023C000FFF763FE70BD000000B587B00422402116
:1023D0005348FFF727FD042280215148FFF722FDD3
:1023E000042240214F48FFF71DFD042280214D4863
:1023F000FFF718FD01210220FEF73FFB0121042019
:10240000FEF73BFB04A8FEF78FFF0020ADF8160097
:10241000ADF812004FF6FF70ADF814000020ADF8D3
:10242000100004A94048FEF753FC04A93F48FEF7FA
:102430004FFC00231A4603213B48FFF758F80023BE
:102440001A4603213948FFF752F801A8FEF77FFF2B
:102450000A20ADF80C0001A93348FEF7CCFE01A913
:102460003248FEF7C8FE01212F48FFF753FA012139
:102470002E48FFF74FFA012211462B48FEF79FFF27
:10248000012211462948FEF79AFF00212648FFF74E
:102490000FFA00212548FFF70BFA01212248FEF729
:1024A00073FF01212148FEF76FFF07B000BD10B593
:1024B0001D48FFF720FA0446B4F5704F02DBA4F57F
:1024C0007F44FF3C00211848FFF7F2F9204610BD79
:1024D00010B51648FFF70FFA0446B4F5704F02DB4B
:1024E000A4F57F44FF3C00211048FFF7E1F92046A6
:1024F00010BD10B501210C48FFF70FFA18B10121EA
:102500000948FFF71BFA10BD10B501210748FFF776
:1025100004FA18B101210548FFF710FA10BD0000B8
:1025200000080140000C0140000400400008004089
:10253000704700BFFEE700BFFEE700BFFEE700BF39
:10254000FEE7704770477047704710B501210E488D
:10255000FFF7E3F9B8B10D480068401C0B4908606B
:1025600003F0CEFB0949086800EBD0714910A0EBDD
:10257000410121B103F024FD00200449086001213C
:102580000148FFF7DBF910BD002C014028000020B6
:1025900038B50446F74890F82400C0B114B10220C1
:1025A000009001E000200090F24A1268D17BF14ACD
:1025B000526810786B46012203F033F910B14FF0E6
:1025C000FF3038BD9DF80010EA48417423E0E94827
:1025D000807A10B94FF0FF30F3E724B1E548407C32
:1025E00008B10020EDE714B10120009001E00020C7
:1025F0000090E04A1268D17BDE4A526810786B4640
:10260000012203F00EF910B14FF0FF30D9E79DF829
:102610000010D84841740020D3E738B500241FE0EB
:10262000D4480068C07AA04204D0D2480068407DF7
:10263000A04200D112E0CF49496808786B460122D8
:10264000214603F039F810B14FF0FF3038BD9DF846
:1026500000202146C8A004F06FFA00BF601CC4B27D
:10266000C44840680079A042DADC0020EEE770B58B
:1026700004460D46BF480068C07AA04204D0BD4859
:102680000068407DA04202D14FF0FF3070BDB948D4
:1026900040680079A04202DC4FF0FF30F6E7B54910
:1026A000496808782B460122214603F005F8EDE73A
:1026B00038B50446AF4890F82300A04201D100206D
:1026C00038BD14B13020009001E000200090A948EE
:1026D000807C20B19DF8000040F002000090A548E9
:1026E00090F8220020B19DF8000040F0800000909A
:1026F000A04A1268117D9F4A526810786B460122E9
:1027000003F08FF810B14FF0FF30D9E7994880F807
:1027100023400020D4E738B5044604F0700010B11F
:102720000120009005E014B10020009001E040205D
:102730000090904A1268917C8E4A526810786B46DD
:10274000012203F06EF820B100218A488172481EF0
:1027500038BD9DF8000020F040018648017300203C
:10276000009004F0400020B99DF8000040F0040003
:10277000009004F0200020B99DF8000040F0020015
:10278000009004F0100020B99DF8000040F0010016
:10279000009004F0080020B99DF8000040F03800D7
:1027A0000090744A1268D17C724A526810786B4665
:1027B000012203F036F820B100216E488172481ED4
:1027C000C6E724B1082C02D00020FFF771FF69484A
:1027D000847200210175322003F0C7FC0020B7E7A6
:1027E00038B504466348807CA04201D1002038BD42
:1027F000002C46D05F4A126811795E4A5268107800
:102800006B46012202F058FF10B14FF0FF30EEE7A7
:102810009DF8000020F020000090564A12681179BF
:10282000544A526810786B46012202F0FAFF10B148
:102830004FF0FF30DBE7032003F097FC022000900D
:102840004C4890F8220020B19DF8000040F0800034
:102850000090484890F8230020B19DF8000040F017
:1028600030000090434A1268117D424A5268107845
:102870006B46012202F0D5FF002851D04FF0FF3007
:10288000B5E73C4A126811793A4A526810786B46AB
:10289000012202F011FF10B14FF0FF30A7E73548D9
:1028A000807A00F0010028B19DF8000040F020007F
:1028B000009004E09DF8000020F0200000902D4AD8
:1028C000126811792B4A526810786B46012202F087
:1028D000A8FF10B14FF0FF3089E7032003F045FC5B
:1028E000244890F8220010B18020009001E00020E0
:1028F0000090204890F8230020B19DF8000040F09F
:10290000300000901B4A1268117D1A4A52681078F4
:102910006B46012202F085FF10B14FF0FF3066E7F1
:1029200014488474002062E708B51248807A10B910
:102930004FF0FF3008BD002000900E4A1268D17B96
:102940000C4A526810786B46012202F06AFF10B1FF
:102950004FF0FF30EEE7074A12685179054A526896
:1029600010786B46012202F05CFF68B14FF0FF3037
:10297000E0E700002C000020252335783A202523AD
:1029800035780D0A00000000F84A12681179F74AFC
:10299000526810786B46012202F043FF10B14FF0ED
:1029A000FF30C7E7F14890F82400002853D00C20EE
:1029B0000090EE4A12681179EC4A526810786B4622
:1029C000012202F02EFF10B14FF0FF30B2E73220AB
:1029D00003F0CBFBC0200090E448807A00F00100B7
:1029E00020B19DF8000040F020000090DF4A1268FE
:1029F0001179DE4A526810786B46012202F011FF0D
:102A000010B14FF0FF3095E7D848407C10B102205C
:102A1000009001E000200090D44A1268D17BD34A94
:102A2000526810786B46012202F0FBFE10B14FF0A5
:102A3000FF307FE700200090CC4A12685179CB4AE2
:102A4000526810786B46012202F0EBFE002855D048
:102A50004FF0FF306EE704200090C44A12681179ED
:102A6000C24A526810786B46012202F0DAFE10B1B9
:102A70004FF0FF305EE7BD48807C20B9BB48807ACC
:102A800000F0010010B94020009001E060200090AB
:102A9000B64A12681179B54A526810786B4601221D
:102AA00002F0BFFE10B14FF0FF3043E7322003F0D9
:102AB0005CFBAE48407C10B10120009001E000209A
:102AC0000090AA4A1268D17BA84A526810786B46D7
:102AD000012202F0A6FE10B14FF0FF302AE7A34A10
:102AE00012685179A14A52681078A04B1033012224
:102AF00002F097FE10B14FF0FF301BE7002019E7FE
:102B000070B50446002624F00104984890F824008B
:102B100008B1002070BD9548807A10B94FF0FF30A1
:102B2000F8E79248057C807A20409049087408466E
:102B3000007CA04202D04FF0FF3600E0002614B91E
:102B40008A48007D18B10120FFF722FD02E0002035
:102B5000FFF71EFD3CB1FFF7E7FE20B18348057487
:102B60004FF0FF30D6E73046D4E738B504467F480B
:102B7000807A10B94FF0FF3038BDBC2C02DB012049
:102B8000009015E0622C02DB0220009010E02A2C5D
:102B900002DB032000900BE0142C02DB04200090E9
:102BA00006E00A2C02DB0520009001E006200090E0
:102BB0006E48C07A9DF80010884201D10020DBE702
:102BC0006A4A12689178694A526810786B46012205
:102BD00002F027FE10B14FF0FF30CDE79DF8001056
:102BE0006248C1720020C7E738B50446282C02DDD0
:102BF0004FF0FF3038BDDCB90020FFF759FD002051
:102C00008DF8000007208DF80100584A1268917C69
:102C1000564A526810786B46022202F002FE10B14A
:102C20004FF0FF30E6E70021504801750020E1E752
:102C30000120FFF73DFD20208DF80000012C06D17A
:102C400000208DF801000520FFF78FFF17E0052C0D
:102C500006DC01208DF801000520FFF786FF0EE05D
:102C6000142C06DC02208DF801000A20FFF77DFFFE
:102C700005E003208DF801001420FFF776FF9DF892
:102C80000100072101EB8010C0B28DF80100374A26
:102C90001268917C354A526810786B46022202F025
:102CA000C0FD10B14FF0FF30A4E708212F4881721A
:102CB00000210173012101750020FFF721FF002091
:102CC00098E738B504462948807A10B94FF0FF30AC
:102CD00038BD264890F8240010B14FF0FF30F7E7D8
:102CE0002248007D50B134B1282C04DCE0B2FFF75B
:102CF0007BFF0020ECE70020FFF776FF042C01DAD1
:102D0000042404E0B4F57A7F01DD4FF47A744FF4C3
:102D10007A7090FBF4F0401EC0B20090134A126823
:102D20005178124A526810786B46012202F079FD00
:102D300010B14FF0FF30CBE79DF80000401C4FF47E
:102D40007A7191FBF0F081B20848C1810146C989CE
:102D50004810FFF70AFF0020BAE738B504460348D9
:102D6000807A28B94FF0FF3038BD00002C000020D9
:102D7000022C06D0042C07D0082C08D0102C0CD123
:102D800008E0002000900BE00820009008E01020F0
:102D9000009005E01820009002E04FF0FF30E3E7DC
:102DA00000BFF848407A9DF80010B0EBE10F01D168
:102DB0000020D9E7F34A1268D179F24A52681078B4
:102DC0006B46012202F02DFD10B14FF0FF30CBE732
:102DD0009DF80000C110EB4841720020C4E738B5EF
:102DE0000446E848807A10B94FF0FF3038BDFA2C1D
:102DF00009D0B4F5FA7F09D0B4F57A7F09D0B4F5DB
:102E0000FA6F0CD108E0002000900BE00820009041
:102E100008E01020009005E01820009002E04FF03C
:102E2000FF30E3E700BFD748007A9DF80010B0EB11
:102E3000E10F01D10020D9E7D24A12689179D14A35
:102E4000526810786B46012202F0EBFC10B14FF093
:102E5000FF30CBE79DF80000C010CA49087200207F
:102E6000C4E71CB580208DF80000C64A1268917C2A
:102E7000C44A526810786B46012202F0D2FC10B1AD
:102E80004FF0FF301CBD642003F06FF900208DF877
:102E90000000BC4A1268917CBA4A526810786B46AE
:102EA000012202F0BEFC10B14FF0FF30EAE7B54A54
:102EB0001268917DB34A526810786B46062202F080
:102EC000FBFB10B14FF0FF30DCE79DF80500C007B9
:102ED000400F9DF8031001F0010140EA41009DF808
:102EE000011001F0010140EA010474B1012C03D189
:102EF0000121A448C17427E0022C03D10021A1487C
:102F0000C17421E04FF0FF30BCE79E4A1268D178CF
:102F10009C4A526810786B46012202F0CDFB10B13A
:102F20004FF0FF30AEE79DF8000000F00F0414B939
:102F30004FF0FF30A6E7042C03D101219148C17462
:102F400002E000218F48C174FF218E488172FF206A
:102F50008C490872FF218B484172C1724FF6FF7194
:102F6000C181FF21017481740121017380F8221055
:102F7000002180F823104175017516300160416011
:102F80008160163880F8241080F82510C1844FF431
:102F9000FA60FFF724FF10B14FF0FF3072E7022014
:102FA000FFF7DBFE10B14FF0FF306BE72A20FFF791
:102FB000DCFD10B14FF0FF3064E73220FFF781FEF7
:102FC00010B14FF0FF305DE70020FFF799FD10B121
:102FD0004FF0FF3056E70020FFF702FC10B14FF032
:102FE000FF304FE70020FFF796FB00204AE77047CD
:102FF0007CB504460D466348807A00F0700010B935
:103000004FF0FF307CBD5F4A1268117B5D4A526809
:1030100010786B46062202F04FFB10B14FF0FF30E4
:10302000F0E79DF801009DF8001040EA012000B291
:1030300020809DF803009DF8021040EA012000B2B4
:1030400060809DF805009DF8041040EA012000B260
:10305000A08015B12846FFF7CAFF0020D2E77CB553
:1030600004460D464748807A00F0080010B94FF03A
:10307000FF307CBD434A1268517B424A5268107847
:103080006B46062202F018FB10B14FF0FF30F0E75C
:103090009DF801009DF8001040EA012000B2208058
:1030A0009DF803009DF8021040EA012000B2608004
:1030B0009DF805009DF8041040EA012000B2A080B0
:1030C00015B12846FFF793FF0020D2E72DE9FE4F08
:1030D00005460C462B48807A18B94FF0FF30BDE802
:1030E000FE8F284A1268917B264A5268107802ABFC
:1030F000022202F0E1FA10B14FF0FF30EFE79DF845
:1031000009009DF8081040EA012006B214B12046DB
:10311000FFF76DFF1B494968C88803F0FCFA19499D
:1031200001904968B1F9080003F0ECFA8346304693
:1031300003F0E8FA5946009003F0E6F88246019958
:1031400003F01AF98146104903F08CF880464FF0DD
:103150008F4103F0DFF8074603F0F3FA2860002000
:10316000BDE710B588B004461CB94FF0FF3008B079
:1031700010BD206850B9606840B9A06830B900201F
:10318000F5E700002C00002000000C42FA494968D5
:10319000087806AB0322114602F08EFA10B14FF008
:1031A000FF30E4E79DF81800082101EB201000F043
:1031B0000F00ADF800009DF8190001EB201000F0A1
:1031C0000F00ADF802009DF81A0001EB201000F08E
:1031D0000F00ADF8040020684100BDF90000403048
:1031E00091FBF0F000B2ADF8100060684100BDF94D
:1031F0000200403091FBF0F000B2ADF81200A06880
:103200004100BDF90400403091FBF0F000B2ADF890
:103210001400D9494968087806AB0622114602F025
:103220004BFA10B14FF0FF30A1E79DF819009DF85F
:10323000181040EA012000B2ADF808009DF81B000C
:103240009DF81A1040EA012000B2ADF80A009DF87E
:103250001D009DF81C1040EA012000B2ADF80C00E2
:10326000BDF81000BDF80810084400B2ADF8100019
:10327000BDF81200BDF80A10084400B2ADF8120003
:10328000BDF81400BDF80C10084400B2ADF81400ED
:10329000BDF81000000A8DF81800BDF81000C0B28B
:1032A0008DF81900BDF81200000A8DF81A00BDF85B
:1032B0001200C0B28DF81B00BDF81400000A8DF892
:1032C0001C00BDF81400C0B28DF81D00AA49496861
:1032D000087806AB0622114602F0A3FA10B14FF0AF
:1032E000FF3044E7002042E70146A348007A30B1AE
:1032F000012807D0022809D003280FD10AE0FA20BC
:1033000008800EE04FF4FA7008800AE04FF47A70FB
:10331000088006E04FF4FA60088002E00020088090
:1033200000BF00BF0020704701469348407A30B18B
:10333000012807D0022808D003280CD108E0022079
:1033400008700BE00420087008E00820087005E011
:103350001020087002E04FF0FF30704700BF864831
:10336000C07C18B108784006000E08700020F4E711
:1033700001468148C07A082817D2DFE800F0170418
:10338000070A0D101318BC20088013E06220088083
:1033900010E02A2008800DE0142008800AE00A20AE
:1033A000088007E00520088004E000BF00BF00207F
:1033B000088000BF00BF0020704701466E4890F8AB
:1033C000240010B14FF0FF3070476B48C08908806F
:1033D0000020F9E7014600200880401E70470146A2
:1033E0004FF0FF30704701466348007A30B1012842
:1033F00007D0022808D003280CD108E05F480860F5
:103400000BE05F48086008E05E48086005E05E4841
:10341000086002E04FF0FF30704700BF0020FBE77C
:1034200001465548407A30B1012808D002280AD018
:10343000032810D10BE04FF4804008800EE041F6E5
:103440009C7008800AE04FF48050088006E04FF43A
:103450000060088002E04FF0FF30704700BF464830
:10346000C07C10B10888401008800020F5E70146B4
:103470004148007C08700020704701463E48807A31
:1034800010B10120087001E0002008700020704792
:1034900038B504463848807A10B94FF0FF3038BD4F
:1034A000354A1268117C344A526810786B46022201
:1034B00002F002F910B14FF0FF30F0E79DF8010083
:1034C0009DF8001040EA012000B220800020E6E7CD
:1034D0002DE9FE4F0746884692461D46DDF830B07E
:1034E00000260024244890F8240010B1601EBDE896
:1034F000FE8F002028702048807A10B94FF0FF30EE
:10350000F5E71D48007C10B94FF0FF30EFE71A488F
:10351000007C00F0400008B1B01CC6B21648007C28
:1035200000F0200008B1B01CC6B21348007C00F0C7
:10353000100008B1B01CC6B20F48007C00F00800B3
:1035400008B1B01DC6B20C4A1268917A0A4A526894
:1035500010786B46022202F0AFF810B14FF0FF3046
:10356000C5E79DF801009DF8001040EA0129B1452A
:103570000CDA0020BBE700002C0000200000034311
:10358000000083423333034233338341FC484068B5
:103590004088B9EB600F17DDF94A1268517CF84A90
:1035A000526810786B46012202F086F810B14FF095
:1035B000FF309CE79DF8000000F0100020B1FFF7FD
:1035C000B3F96FF0010092E75046FFF710FDEC4AA7
:1035D0001268D17AEA4A526810786B46324602F095
:1035E0006BF810B14FF0FF3081E799FBF6F0401E09
:1035F0008BF8000000202870B4422AD0E048007CFC
:1036000000F0080028B3601C1DF800001DF804102D
:1036100040EA012000B2A8F80000E01C1DF80010EC
:10362000A01C1DF8000041EA002000B2A8F802002A
:10363000601D1DF80010201D1DF8000041EA00204B
:1036400000B2A8F80400287840F008002870A01DF7
:1036500084B2B44213D0CA48007C00F0400070B17C
:10366000601C1DF800001DF8041040EA012000B2A3
:103670003880287840F040002870A01C84B2B44202
:1036800013D0BF48007C00F0200070B1601C1DF812
:1036900000001DF8041040EA012000B2788028786C
:1036A00040F020002870A01C84B2B44213D0B4486B
:1036B000007C00F0100070B1601C1DF800001DF8C7
:1036C000041040EA012000B2B880287840F01000D1
:1036D0002870A01C84B2002009E7F8B504460F4604
:1036E0001646A74890F8240010B94FF0FF30F8BDF7
:1036F000A348807A10B94FF0FF30F8E7A04A12686B
:10370000917A9F4A526810786B46022201F0D4FFEA
:1037100010B14FF0FF30EAE79DF801009DF800106E
:1037200040EA0125A54203DA00203070401EDEE7A2
:10373000934840684088B5EB600F17DD904A1268E7
:10374000517C8F4A526810786B46012201F0B4FF19
:1037500010B14FF0FF30CAE79DF8000000F01000F4
:1037600020B1FFF7E1F86FF00100C0E7E2B2844B4F
:103770001B68D97A824B5B6818783B4601F09CFF46
:1037800010B14FF0FF30B2E795FBF4F0401E3070FF
:103790000020ACE701467A4880F8221000207047EC
:1037A0007CB5054676494968087801AB04220D21AD
:1037B00001F082FF08B107207CBD9DF80700C0F32F
:1037C00001109DF8041001F0E00140EAE1008DF8DD
:1037D00000009DF80700C0F381009DF8051001F07E
:1037E000E00140EAE1008DF801009DF8070000F0DB
:1037F00003009DF8061001F0E00140EAE1008DF8B9
:10380000020000241CE01DF8040018B9002045F84F
:10381000240013E05B4845F8240006E055F8240036
:10382000594902F077FD45F824001DF80400401EB8
:10383000C0B20DF804000028F0D100BF601CC4B273
:10384000032CE0DB0020B7E72DE9FE4F06460F46CC
:1038500000256846FFF7A4FF002442E056F8240044
:1038600057F82410A0EB010ABAF1000F01DB514612
:1038700001E0CAF10001084602F044FF83464FF020
:103880008F4102F079FD80465DF82400002102F0AE
:10389000B5FF16D05DF82410404602F06DFD82465B
:1038A0004FF07E5102F030FD814629F0004A374842
:1038B000416A504602F0ACFF12D20120A0400543FD
:1038C0000EE03248C169404602F098FF05D32F4808
:1038D000016A404602F09CFF02D20120A04005434D
:1038E000641C032CBADB2846BDE8FE8F2DE9FC5F83
:1038F00006460F46002522494968087801AB032295
:103900000D2101F0D9FE10B10720BDE8FC9F9DF804
:10391000040000F01F008DF804009DF8050000F081
:103920001F008DF805009DF8060000F01F008DF8BF
:103930000600002462E056F8240057F82410A0EB9B
:10394000010BBBF1000F01DB594601E0CBF1000197
:10395000084602F0D7FE4FF08F41009002F00CFDB8
:10396000814601A8005DC0B30849086802F0D3FE93
:1039700083465946064802F0FFFC80460FE00000EF
:103980002C0000207B14AE3E1D5A843F787D000839
:1039900000B04C45FE49404602F0BCFC804601A800
:1039A000005D401EC0B201A908550028F2D1414671
:1039B000484602F0E1FC83464FF07E5102F0A4FC41
:1039C00082462AF0004BF3488169584602F020FFF6
:1039D00013D20120A04005430FE0FFE7ED48016945
:1039E000484602F00BFF05D3EA484169484602F019
:1039F0000FFF02D20120A0400543641C032C9ADB78
:103A0000284682E72DE9F04F87B005460C469146DF
:103A100001208DF8100000208DF81100DE4A126898
:103A2000917CDD4A5268107804AB022201F0F9FE65
:103A300020B14FF0FF3007B0BDE8F08FC82002F092
:103A400094FB00208DF81000D34A1268D17BD24A33
:103A50005268107804AB012201F0E3FE10B14FF080
:103A6000FF30E8E7CC4A12685179CB4A52681078A7
:103A700004AB012201F0D5FE10B14FF0FF30DAE7C0
:103A8000C54A1268917CC44A5268107804AB01227E
:103A900001F0C7FE10B14FF0FF30CCE7BE4A12680C
:103AA000D17DBD4A5268107804AB012201F0B9FE05
:103AB00010B14FF0FF30BEE7B74A12681179B64A2D
:103AC0005268107804AB012201F0ABFE10B14FF048
:103AD000FF30B0E70C208DF81000AF4A1268117962
:103AE000AD4A5268107804AB012201F09AFE10B181
:103AF0004FF0FF309FE70F2002F037FBA648806AA7
:103B0000407A8DF81000A44A12689178A24A52684F
:103B1000107804AB012201F084FE10B14FF0FF30A9
:103B200089E79D48806A007A8DF810009A4A1268E9
:103B30005178994A5268107804AB012201F071FE65
:103B400010B14FF0FF3076E7B9F1000F07D092487F
:103B5000806A807A40F0E0008DF8100004E08E4822
:103B6000806A807A8DF810008B4A126891798A4AAF
:103B70005268107804AB012201F053FE10B14FF0EF
:103B8000FF3058E7B9F1000F07D08348806AC07A48
:103B900040F0E0008DF8100003E07E48C07A8DF818
:103BA00010007D4A1268D1797B4A5268107804ABC4
:103BB000012201F036FE10B14FF0FF303BE7B9F1C2
:103BC000000F02D0C82002F0D0FA40208DF810007B
:103BD000714A12681179704A5268107804AB012258
:103BE00001F01FFE10B14FF0FF3024E778208DF870
:103BF0001000694A12685179674A5268107804AB1C
:103C0000012201F00EFE10B14FF0FF3013E76149C1
:103C1000888902F0AAFA00208DF810005E4A126826
:103C200051795D4A5268107804AB012201F0F9FD28
:103C300010B14FF0FF30FEE6574A1268917A564AAB
:103C40005268107804AB022201F036FD10B14FF03B
:103C5000FF30F0E69DF811009DF8101040EA012BAE
:103C60000C209BFBF0F0C6B20020A86068602860C2
:103C7000A06060602060824665E0474A1268D17AA1
:103C8000454A5268107804AB0C2201F015FD10B1C2
:103C90004FF0FF30CFE69DF811009DF8101040EA7C
:103CA000012000B2ADF808009DF813009DF8121035
:103CB00040EA012000B2ADF80A009DF815009DF819
:103CC000141040EA012000B2ADF80C00BDF9081054
:103CD000206808442060BDF90A10606808446060EC
:103CE000BDF90C10A0680844A0609DF817009DF86D
:103CF000161040EA012000B2ADF800009DF819004E
:103D00009DF8181040EA012000B2ADF802009DF8BD
:103D10001B009DF81A1040EA012000B2ADF8040023
:103D2000BDF90010286808442860BDF902106868D1
:103D300008446860BDF90410A8680844A8600AF146
:103D4000010000F0FF0AB24597DB1248D0F800C02E
:103D50002868C117090441EA10410704624600239C
:103D6000384602F02FFA32460023CDE9020102F074
:103D700029FA28600748D0F800C06868C11709040C
:103D800041EA1041070462460023384606E000007D
:103D900054E3853F787D00082C00002002F012FAE1
:103DA00032460023CDE9020102F00CFA6860FE48B9
:103DB000D0F800C0A868C117090441EA10410704FF
:103DC00062460023384602F0FDF932460023CDE971
:103DD000020102F0F7F9A860F348D0F804C02068A7
:103DE000C117090441EA104107046246002338461E
:103DF00002F0E8F932460023CDE9020102F0E2F9CF
:103E00002060E948D0F804C06068C117090441EA9D
:103E10001041070462460023384602F0D3F93246C7
:103E20000023CDE9020102F0CDF96060DE48D0F850
:103E300004C0A068C117090441EA104107046246A2
:103E40000023384602F0BEF932460023CDE90201D4
:103E500002F0B8F9A060A068002804DDA068A0F511
:103E60008030A06003E0A06800F58030A0600020F2
:103E7000E1E538B50446CD4890F82400A04201D1D0
:103E8000002038BD24B3C94890F8250010B94FF080
:103E9000FF30F6E70020FEF77BFB0020FEF7A0FCDA
:103EA000C249C88CFEF70DFF00200090BF49496849
:103EB00008786B460122232101F0B3FC0121BB48A5
:103EC00080F824100120FEF763FBFEF72DFD13E0C0
:103ED0000020FEF75DFBB548007C0090B3494968BF
:103EE00008786B460122232101F09BFC0021AF489A
:103EF00080F82410FEF718FD0020C2E72DE9F04FEE
:103F00008DB083460F4602200C90A84890F82400FC
:103F100020B10020FFF7ADFF012600E0002603A836
:103F2000FFF7E2F905A8FFF7FFF901A8FFF720FA6C
:103F300002A8FFF742FA9D4890F80AA004A8FFF7EC
:103F400096FA002407E0002239465846FFF75AFD4A
:103F500000B902E0641C022CF5DB00BF022C01D189
:103F6000002528E0002407E0012206A909A8FFF7A0
:103F700049FD00B902E0641C022CF5DB00BF022CF5
:103F800001D1002517E006A93846FFF75DFC00F0D7
:103F9000FF0809A95846FFF7A9FC00F0FF09002512
:103FA000B9F1000F01D145F00105B8F1000F01D1C1
:103FB00045F0020500BFFF207C490872FF217B48C5
:103FC0004172C1724FF6FF71C181FF21817201748C
:103FD00001210173BDF80C00FEF701FF9DF81400EC
:103FE000FEF7BBFEBDF80400FEF7BFFDBDF80800FC
:103FF000FEF767FE5046FEF78EFB9DF81000FEF7B9
:104000007FFD16B10120FFF734FF28460DB0BDE853
:10401000F08FF8B504460D46164616B94FF0FF303E
:10402000F8BD6248807A10B94FF0FF30F8E72012EF
:104030008DF80000E0B28DF801009DF801002844E1
:104040005A4949684989884202DD4FF0FF30E7E765
:10405000564A1268117E554A526810786B46022201
:1040600001F0DFFB10B14FF0FF30D9E7EAB24F4B60
:104070001B68597D4D4B5B681878334601F0D1FBC6
:1040800010B14FF0FF30CBE70020C9E7F8B5044688
:104090000D46164616B94FF0FF30F8BD4348807AFA
:1040A00010B94FF0FF30F8E720128DF80000E0B2B1
:1040B0008DF801009DF8010028443C494968498970
:1040C000884202DD4FF0FF30E7E7384A1268117E80
:1040D000364A526810786B46022201F0A2FB10B1FA
:1040E0004FF0FF30D9E7EAB2304B1B68597D2F4BB8
:1040F0005B681878334601F0DFFA10B14FF0FF30FB
:10410000CBE70020C9E72DE9F04385B005460E4610
:1041100090469946254890F8250020B14FF0FF3091
:1041200005B0BDE8F08316B94FF0FF30F8E7002482
:1041300023E0281B102801DD102000E0281B87B297
:10414000321939462046FFF764FF10B14FF0FF30B7
:10415000E6E701AA39462046FFF798FF10B14FF075
:10416000FF30DDE730193A4601A902F06EF810B1D0
:104170006FF00100D4E7E01984B2AC42D9DB4FEA1A
:1041800028208DF8000008F0FF008DF80100074A94
:104190001268917E054A526810786B46022201F03F
:1041A00040FB40B104E00000787D00082C000020B6
:1041B0004FF0FF30B4E70121FE4880F82510A0F849
:1041C00026900020ACE70146FA4890F824000870D9
:1041D000002070474FF0FF30704702464FF0FF302D
:1041E000704701464FF0FF307047F8B505460F465F
:1041F0001446002C70D0B5F5FF5F01DDFF2605E009
:10420000202D01DA012601E0C5F3471607B9012781
:10421000282C02DD4FF0FF30F8BDE648407D28BB7A
:10422000E44890F8240038B10020FFF722FE012175
:10423000E04880F8201003E00021DE4880F82010DC
:10424000DC481630FFF750F8DA481830FFF76CF802
:10425000D8481A30FFF78CF8D6481C30FFF7ADF875
:10426000D448817A81771F30FFF701F90020FEF7EB
:104270008FF90020FEF7B8FC00208DF80000CD4A31
:1042800012689178CB4A526810786B46012201F08F
:10429000C8FA10B14FF0FF30BEE740208DF80000A3
:1042A000C44A1268D17BC34A526810786B46012217
:1042B00001F0B7FA00B165E08DF800608DF801708B
:1042C000BC4A1268117ABB4A526810786B460222C7
:1042D00001F0A7FA08B155E047E0052001F045FFDD
:1042E000B448407A072101EBC000C0B28DF800004D
:1042F000B04A1268D179AF4A526810786B460122F1
:1043000001F08FFA00B13DE020208DF80000012C73
:1043100003D100208DF801000EE0052C03DC012004
:104320008DF8010008E0142C03DC02208DF8010058
:1043300002E003208DF801009DF80100072101EB48
:104340008010C0B28DF801009A4A1268917C994A97
:10435000526810786B46022201F063FA00B111E056
:10436000012194484175002056E7924A16320021F7
:1043700003E0505C00B105E0491C0C29F9D34FF073
:10438000FF3049E7FF208B490872FF2189484172BD
:10439000C1724FF6FF71C181FF2181720174012149
:1043A00001730146887FFEF7B6F98249C88AFEF795
:1043B00016FD8049087EFEF7D0FC7E49488BFEF74B
:1043C000D4FB7C49888BFEF77CFC7A49C87FFEF7DA
:1043D00097FB784890F8200010B10120FFF749FDC5
:1043E000002174484175002016E770B588B002A915
:1043F00005A8FFF783FD0446032C3ED101A8FEF774
:10440000F2FF059802F07EF90646019901F082FF5D
:10441000054602F096F90590069802F073F90646F3
:10442000019901F077FF054602F08BF90690079895
:1044300002F068F90646019901F06CFF054602F0AA
:1044400080F9079005A800F054FA6846FEF7E8FFE7
:10445000BDF80010029848430290BDF80010039880
:1044600048430390BDF8001004984843049002A804
:1044700000F0D2FA002008B070BD0120FBE7014631
:1044800091F90020002A01DD00201EE091F90020B2
:10449000002A01DA042018E091F90120002A01DD48
:1044A000012012E091F90120002A01DA05200CE038
:1044B00091F90220002A01DD022006E091F9022094
:1044C000002A01DA062000E00720704710B50446F4
:1044D0002046FFF7D4FF0346E01CFFF7D0FF43EA76
:1044E000C00083B2A01DFFF7CAFF43EA801083B269
:1044F000184610BD70B5002401F0D1F9FEF7B1FCEB
:10450000002840D17820FEF706F9C4B20CB1012092
:1045100070BD7820FEF7F4FAC4B20CB10220F7E7C0
:104520006420FEF7CEFBC4B20CB10320F0E700F02C
:1045300045F9C4B20CB10420EAE71F48FFF7C6FFF3
:10454000054600F045F9C4B20CB10520E0E740F2A1
:10455000731000F07EFDC4B20CB10620D8E76420D1
:1045600000F0F0FAC4B20CB10720D1E7FFF73DFF2D
:1045700004460CB10820CBE70120FFF77AFCC4B257
:104580001CB10920C4E70A20C2E70020C0E72DE9DA
:10459000F04F99B004460D4616464FF07E574FF047
:1045A00000084FF000094FF0000A12A813A918AB39
:1045B0000EAA03E02C00002058000020CDE90010D6
:1045C00014A916A800F0A4FE18B1012019B0BDE886
:1045D000F08FBDF84C0000F4807000287ED00E985B
:1045E00002F090F883464FF09D4101F0C5FE07466A
:1045F0000F9802F087F883464FF09D4101F0BCFE12
:104600008046109802F07EF883464FF09D4101F0FD
:10461000B3FE8146119802F075F883464FF09D4134
:1046200001F0AAFE824639464FF0804001F072FE4A
:104630004946059001F06EFE414607904FF040401C
:1046400001F068FE5146059001F064FE069007995E
:1046500001F008FE834602F0A1F8CDE9080102F05E
:1046600039FD4FF06632544BCDE90A0101F069FF84
:10467000CDE90C0102F0A5F8206049464FF08040DA
:1046800001F048FE4946029001F044FE4146049084
:104690004FF0404001F03EFE4146029001F03AFEEC
:1046A0000390049901F030FE83464FF07E5101F0F3
:1046B000D9FD059002F072F8CDE9080139464FF0B6
:1046C000804001F027FE4146039001F023FE494659
:1046D00004904FF0804001F01DFE00E068E051467C
:1046E000039001F017FE8346049901F0BBFD05908D
:1046F00002F054F8CDE90601DDE9082302F032FFAB
:104700004FF066322C4BCDE90A0101F01AFFCDE9DA
:104710000C0102F056F828605146504601F0FAFDAF
:1047200049460490484601F0F5FD41460390404655
:1047300001F0F0FD39460190384601F0EBFD0090A4
:10474000019901F08FFD0290039901F0DDFD834690
:10475000049901F0D9FD059002F020F8CDE9080197
:104760005146384601F0D6FD49460490404601F0D6
:10477000D1FD0390049901F075FD4FF08041059043
:1047800001F0C8FD834602F009F8CDE90601DDE934
:10479000082302F0E7FE4FF06632074BCDE90A012D
:1047A00001F0CFFECDE90C0102F00BF8306001E022
:1047B00002200BE7002009E766A64C4010B5C8238D
:1047C0004FF48062F74940F6F630FFF79CFC10BDCD
:1047D00010B586B00446F4A000680390F3A000680A
:1047E0000290F3A000680190F2A00068009004F02D
:1047F000030003A9085C8DF8140003A8C4F3C101E9
:10480000405C8DF8150003A8C4F38111405C8DF85D
:10481000160004F0030002A9085C8DF8100002A83D
:10482000C4F3C101405C8DF8110002A8C4F38111EA
:10483000405C8DF8120005AA032140F22640FFF7E4
:10484000E8FB18B14FF0FF3006B010BD04AA0321F9
:1048500040F22A40FFF7DDFB10B14FF0FF30F3E7E5
:10486000019805900098049004F0040058B19DF858
:10487000140040F001008DF814009DF8100040F085
:1048800001008DF8100004F0200058B19DF81500CB
:1048900040F001008DF815009DF8110040F0010076
:1048A0008DF8110004F4807058B19DF8160040F0A6
:1048B00001008DF816009DF8120040F001008DF8FF
:1048C000120005AA03214FF48860FFF7A2FB10B184
:1048D0004FF0FF30B8E704AA032140F23140FFF760
:1048E00098FB10B14FF0FF30AEE7B34804810020D1
:1048F000AAE71FB50446B048007A00F0030054F858
:1049000020000190AC48007A00F0040010B101983A
:1049100040420190A848007AC0F3C10054F820003A
:104920000290A548007A00F0200010B102984042A1
:104930000290A148007AC0F3811054F8200003903F
:104940009D48008900F4807010B1039840420390A4
:104950009A49019880FB0101800F40EA8100019093
:104960009649029880FB0110820042EA9170029001
:104970009249039880FB0110820042EA91700390F3
:104980000198000E8DF800000198000C8DF80100D0
:104990000198000A8DF802000198C0B28DF803005A
:1049A0006A4604214FF47470FFF733FB18B14FF0DF
:1049B000FF3004B010BD0298000E8DF80000029880
:1049C000000C8DF801000298000A8DF80200029890
:1049D000C0B28DF803006A4604214FF47570FFF7EA
:1049E00018FB10B14FF0FF30E3E70398000E8DF88D
:1049F00000000398000C8DF801000398000A8DF860
:104A000002000398C0B28DF803006A4604214FF4F7
:104A10007670FFF7FEFACCE770B588B0064601A8BD
:104A2000FEF7FEFCBDF804000021C90341EA504531
:104A3000C4036148007A00F0030056F82000059096
:104A40005D48007A00F0040010B1059840420590DE
:104A50005948007AC0F3C10056F820000690564825
:104A6000007A00F0200010B10698404206905248AB
:104A7000007AC0F3811056F8200007904E48008954
:104A800000F4807010B10798404207900598C11754
:104A9000A0FB042301FB043100FB0510810041EA67
:104AA000927005900698C117A0FB042301FB043106
:104AB00000FB0510810041EA927006900798C1172B
:104AC000A0FB042301FB043100FB0510810041EA37
:104AD000927007900598000E8DF808000598000C5C
:104AE0008DF809000598000A8DF80A000598C0B2F3
:104AF0008DF80B000698000E8DF80C000698000C3F
:104B00008DF80D000698000A8DF80E000698C0B2C8
:104B10008DF80F000798000E8DF810000798000C14
:104B20008DF811000798000A8DF812000798C0B29E
:104B30008DF8130002AA0C214FF42570FFF769FAD3
:104B400008B070BD30B585B004461DA207CA02ABDF
:104B500007C3C82C03DD4FF0FF3005B030BDC820BF
:104B600090FBF4F0401E85B2280A8DF80000E8B2F0
:104B70008DF801006A46022140F21620FFF749FA3B
:104B800010B14FF0FF30E8E702AA0C2140F6C12037
:104B9000FFF73FFA10B14FF0FF30DEE7064884819F
:104BA0000020DAE7A07D00084CCD6C000CC92C0079
:104BB00036567600264666002001002009E3CA0228
:104BC000FEF2ABC4AAF1DFDFBBAFDFDF0146FC487A
:104BD00080890880002070472DE9FC4706460F4673
:104BE00006F0070010B1B7F5C86F03DD4FF0FF30D6
:104BF000BDE8FC87384601F08EFD8146F14901F0A1
:104C0000BBFB80466846FEF78FFB9DF8000002283C
:104C100006D0042816D0082826D0102848D135E020
:104C20004FF08D41404601F075FB814601F0A2FD39
:104C300084B2E549404601F06DFB814601F09AFDE2
:104C400085B238E04FF08C41404601F063FB81466D
:104C500001F090FD84B2DD49404601F05BFB8146E6
:104C600001F088FD85B226E04FF08B41404601F00F
:104C700051FB814601F07EFD84B2D549404601F0EA
:104C800049FB814601F076FD85B214E04FF08A4180
:104C9000404601F03FFB814601F06CFD84B2CD49F6
:104CA000404601F037FB814601F064FD85B202E029
:104CB0004FF0FF309CE700BF20128DF80400E0B2F7
:104CC0008DF8050028128DF80600E8B28DF807006F
:104CD00006F00100A0B101AA02214FF4EA70FFF72B
:104CE00098F910B14FF0FF3082E70DF10602022172
:104CF0004FF49270FFF78DF910B14FF0FF3077E766
:104D000006F00200A0B101AA02214FF4EC70FFF7F7
:104D100080F910B14FF0FF306AE70DF10602022171
:104D20004FF49470FFF775F910B14FF0FF305FE763
:104D300006F00400A0B101AA02214FF4EE70FFF7C3
:104D400068F910B14FF0FF3052E70DF10602022171
:104D50004FF49670FFF75DF910B14FF0FF3047E761
:104D6000002045E738B504460020009004F001001B
:104D700020B19DF8000040F03000009004F00200E7
:104D800020B19DF8000040F00C00009004F00400F9
:104D900020B19DF8000040F0030000906A46012118
:104DA0004FF4A470FFF735F938BD38B50446012C2F
:104DB00001DA012402E0042C00DD0424601EC0B2EC
:104DC00000906A46012140F24F10FFF722F938BDEA
:104DD00038B50446052094FBF0F085B228128DF812
:104DE0000000E8B28DF801006A4602214FF4EF702E
:104DF000FFF70FF938BD38B50446052094FBF0F0F5
:104E000085B228128DF80000E8B28DF801006A46DC
:104E100002214FF4ED70FFF7FCF838BDF8B50546F8
:104E20000E464FF47A7095FBF0F000FB06F4200E6E
:104E30008DF80000200C8DF80100200A8DF802008A
:104E4000E0B28DF803006A4604214FF4AE70FFF71C
:104E5000E0F8F8BD38B50446052094FBF0F084B2C4
:104E600020128DF80000E0B28DF801006A460221A0
:104E70004FF4AD70FFF7CDF838BD38B504460520C6
:104E800094FBF0F084B220128DF80000E0B28DF8AF
:104E900001006A4602214FF4AC70FFF7BAF838BD42
:104EA00038B5044614B94FF0FF3038BD6A460421C6
:104EB0004FF45870FFF7EAF810B14FF0FF30F4E705
:104EC0009DF8000000069DF8011040EA01409DF8A1
:104ED000021040EA01209DF80310084320600020E2
:104EE000E3E738B50446200E8DF80000200C8DF85D
:104EF0000100200A8DF80200E0B28DF803006A4636
:104F000004214FF45870FFF784F838BD38B50446D3
:104F100014B94FF0FF3038BD6A4604214FF4717068
:104F2000FFF7B4F810B14FF0FF30F4E79DF8000040
:104F300000069DF8011040EA01409DF8021040EA89
:104F400001209DF80310084300EB800080002060E2
:104F50000020E0E738B504461420B4FBF0F4200E3E
:104F60008DF80000200C8DF80100200A8DF8020059
:104F7000E0B28DF803006A4604214FF47170FFF728
:104F800048F838BD38B5044664B120208DF80000DB
:104F900028208DF8010030208DF8020038208DF88F
:104FA000030004E0A3220421684601F03CF96A46AC
:104FB000042140F69E20FFF72CF8FDF7B5FC38BD24
:104FC0002001002000004843000040460000C0458A
:104FD000000040450000C04438B5044664B1C0201C
:104FE0008DF80000C2208DF80100C4208DF8020069
:104FF000C6208DF8030004E08B220421684601F0EE
:1050000012F96A46042140F69820FFF702F8FDF7EE
:105010008BFC38BD3EB504466CB1FDA1D1E9002042
:105020008968CDE9002002916A4609214FF4976012
:10503000FEF7EFFF3EBDF9A2D2E900109268CDE97C
:10504000010200916A4609214FF49760FEF7E1FFE3
:10505000F0E73EB5044602208DF80000CA208DF826
:105060000100E3208DF8020009208DF803006A4654
:1050700004216820FEF7CDFFA3208DF8000004F086
:10508000400048B1C0208DF80100C8208DF8020012
:10509000C2208DF8030006E0A3208DF801008DF8F2
:1050A00002008DF8030004F4C07048B1C4208DF8EC
:1050B0000400CC208DF80500C6208DF8060006E01F
:1050C000A3208DF804008DF805008DF80600A320BC
:1050D0008DF807008DF808008DF809006A460A214E
:1050E00040F6A720FEF795FF04F0030018B120203A
:1050F0008DF8000002E0D8208DF800006A460121FA
:1051000040F6B620FEF785FF04F0200018B101201C
:10511000FFF780FF02E00020FFF77CFF04F4C0707F
:1051200008B304F4807060B1B2208DF800008B20C9
:105130008DF80100B6208DF802009B208DF8030049
:105140000BE0B0208DF8000080208DF80100B42025
:105150008DF8020090208DF803006A46042140F685
:10516000A220FEF756FF04F0010020B3F8208DF8CE
:1051700000006A4601214FF40B60FEF74AFFFA2156
:105180000720FFF729FD0720FFF7ECFD0120FFF7BF
:105190000CFE6420FFF71CFE4FF4FA70FFF72BFEA5
:1051A000C821A148FFF73AFE2820FFF753FE0A2046
:1051B000FFF763FE08E0D8208DF800006A46012161
:1051C0004FF40B60FEF725FF04F0020018B1D92060
:1051D0008DF8000002E0D8208DF800006A46012119
:1051E00040F23D70FEF715FF04F0040018B10120F5
:1051F000FFF7F2FE02E00020FFF7EEFE04F01000E1
:1052000018B10120FFF7BEFE02E00020FFF7BAFE52
:1052100044F0080085494881FDF786FB002083495A
:10522000887304F0400018B10846807B801D8873A5
:1052300004F4C07020B17D48807B801D7B49887359
:1052400004F0140020B17948807B103077498873CE
:1052500004F0030020B17548807B001D73498873FA
:1052600000203EBD014671484089088000207047FB
:105270002DE9F0410446E07800F0C006E07800F047
:105280003F05607800F0010098B1EF102846E9175B
:1052900005EB5171C910A5EBC101491C01F0FF08D4
:1052A0006248006820B1614841460268384690472C
:1052B00000BF607800F0080030B15C48406818B169
:1052C000B0115A4A516888470020BDE8F08110B5F6
:1052D00086B0044656A207CA03AB07C357A207CA43
:1052E0008DE80700012C09D0022C0ED103AA0B2156
:1052F00040F68220FEF78DFE06B010BD6A460B21F7
:1053000040F68220FEF785FEF6E74FF0FF30F3E728
:105310002DE9F04F8DB00746884615469946DDE9E0
:10532000166B0024002030804049887B5A4605A92E
:10533000FEF7D3F918B1601E0DB0BDE8F08F3B4801
:10534000807A00F01400002861D09DF81400000657
:105350009DF8151040EA01409DF8161040EA012022
:105360009DF81710084328609DF8180000069DF866
:10537000191040EA01409DF81A1040EA01209DF8FA
:105380001B10084368609DF81C0000069DF81D1066
:1053900040EA01409DF81E1040EA01209DF81F10D0
:1053A0000843A8609DF8200000069DF8211040EAFF
:1053B00001409DF8221040EA01209DF82310084387
:1053C000E86004F11000C4B2286800140190686815
:1053D00000140290A86800140390E8680014049078
:1053E00001984043029901FB0100039901FB010070
:1053F000049901FB010ABAF1706F02DBBAF1885F10
:1054000022DDFDF791FA00203080401E94E721E074
:10541000B8AAB38DB4980D355D000000B8AAAAAA49
:10542000B088C3C5C700000009E3CA0220010020FC
:10543000D8B1B9F38BA391B609B4D900DAB1B9F3F5
:105440008BA391B6DAB4DA00B6F9000040F48070AC
:10545000308000BF3448807A00F0400020B305A9B6
:10546000601C085C095D40EA012000B2A8F8000059
:1054700005A9E01C095C05AAA01C105C41EA0020FB
:1054800000B2A8F8020005A9601D095C201D105C8F
:1054900041EA002000B2A8F80400A01DC4B2B6F989
:1054A000000040F0080030801F48408900F4C070C0
:1054B00008B305A9601C085C095D40EA012000B240
:1054C000388005A9E01C095C05AAA01C105C41EA13
:1054D000002000B2788005A9601D095C201D105CC9
:1054E00041EA002000B2B880A01DC4B2B6F90000A5
:1054F00040F0700030800C48807A00F0030018B152
:1055000005A90819FFF7B4FE4846FDF770FD002015
:1055100012E7014604480160002070470146024836
:1055200041600020704700002001002070B5054652
:105530000C4600F0CCF9D02000F07DFA00F008FA1B
:1055400018B100F0E4F9012070BD284600F073FAAC
:1055500000F0FEF9204600F06EFA00F0F9F918B1FB
:1055600000F0D5F90120EFE700F0D1F90020EBE7DA
:1055700070B504460025BC2C01DB012510E0622C2F
:1055800001DB02250CE02A2C01DB032508E0142CAA
:1055900001DB042504E00A2C01DB052500E00625DB
:1055A00029461A20FFF7C2FF70BD70B50446B4F556
:1055B0007A7F01DD4FF47A74042C00DA04244FF46E
:1055C0007A7090FBF4F0401EC5B229461920FFF70F
:1055D000ADFF0546264604EBD671C1F34F00FFF739
:1055E000C7FF70BD70B5044600F071F9D02000F01F
:1055F00022FA00F0ADF9204600F01DFA00F0A8F9FB
:1056000000F065F9D12000F016FA00F0A1F90020B1
:1056100000F03CFA054600F07AF9284670BD10B556
:105620000446E006010E1C20FFF780FF10BD10B5F8
:105630000446E006010E1B20FFF778FF10BD10B5F1
:1056400000F02DF980216B20FFF770FF642000F03F
:105650008CFD00216B20FFF769FF0320FFF7E7FFB8
:105660000020FFF7DCFFC820FFF79FFF0021382054
:10567000FFF75CFF00216A20FFF758FF002123207D
:10568000FFF754FF80213720FFF750FF7520FFF709
:10569000A9FF0446682C0BD101216B20FFF746FFC0
:1056A00000216C20FFF742FF3220FFF77EFF01E070
:1056B000012010BD0020FCE72DE9F04106460F4611
:1056C00014461D4600F003F9002141EA4601C8B224
:1056D00000F0B1F900F03CF920B100F018F9012018
:1056E000BDE8F081384600F0A6F900F031F900F08D
:1056F000EEF8012101EB4601C8B200F09CF900F080
:1057000027F90DE0012C04D1002000F0BFF928702A
:1057100003E0012000F0BAF92870601EC4B26D1CCD
:10572000002CEFD100F0F3F80020D9E72DE9F84F75
:105730006B46022241216820FFF7BEFF9DF8010061
:105740009DF8001040EA01200FFA80FA504600F060
:10575000E7FF804600224B4B00F065FF06464A4AB1
:105760004A4B00F047FE044601F02BF883464849B7
:10577000584600F0CFFD044600F0E3FF00B2BDE85C
:10578000F88F2DE9FC4104460D4616466B4606226D
:1057900043216820FFF790FF0746BFB99DF801003D
:1057A0009DF8001040EA012000B220809DF803001F
:1057B0009DF8021040EA012000B228809DF8050003
:1057C0009DF8041040EA012000B230803846BDE860
:1057D000FC812DE9FC4104460D4616466B46062227
:1057E0003B216820FFF768FF0746BFB99DF801001D
:1057F0009DF8001040EA012000B220809DF80300CF
:105800009DF8021040EA012000B228809DF80500B2
:105810009DF8041040EA012000B230803846BDE80F
:10582000FC812DE9F04105460E461746984600F0EA
:105830004EF8002141EA4501C8B200F0FCF800F042
:1058400087F820B100F063F80120BDE8F081304610
:1058500000F0F1F800F07CF800240CE018F80400E7
:1058600000F0E9F800F074F818B100F050F80120E9
:10587000EBE7601CC4B2BC42F0DB00F048F800204B
:10588000E3E7000000407540A4703D0AD743424062
:105890000000C84210B5022000F043FC10BD08B55E
:1058A00001210920FBF7DCF801219148FAF7EDFE10
:1058B0004FF44070ADF8000010208DF80300032075
:1058C0008DF8020069468B48FAF70EFE08BD10B548
:1058D0008848001D006820F0F0008649091D086016
:1058E0000846006840F030000860012082490860E6
:1058F0008249C1F8A001FFF7CDFF00207E49086072
:10590000FFF7C8FF00207D49C1F8A00110BD10B508
:105910007848001D006820F0F0007649091D0860F5
:105920000846006840F03000086000207249091FF6
:1059300008607249C1F8A401FFF7ACFF01206E496D
:10594000091F08606D49C1F8A401FFF7A3FF10BD4E
:1059500010B500246748001D006820F0F00065497C
:10596000091D08600846006840F0800008600120BA
:1059700061490860FFF78EFF01206049C1F8A0016E
:10598000FFF788FF07E0601CC4B2FA2C03DDFFF7C5
:10599000BEFF012010BD5848803800680028F2D1B1
:1059A0005549091F086000BFF4E710B500205249AF
:1059B000091F08604F48001D006820F0F0004D49A5
:1059C000091D08600846006840F0300008600020AB
:1059D0004A49C1F8A401FFF75DFF01204649091FAC
:1059E0000860FFF757FF00204449C1F8A00110BD2F
:1059F00010B500204049091F08603E48001D00689E
:105A000020F0F0003B49091D08600846006840F09E
:105A10003000086001203949C1F8A401FFF73AFFBE
:105A200001203549091F0860FFF734FF0020334982
:105A3000C1F8A00110BD70B504462E48001D0068D5
:105A400020F0F0002B49091D08600846006840F06E
:105A50003000086000202849091F0860002512E076
:105A6000E009254908606006040E01202349C1F8B9
:105A7000A001FFF70FFF00201F49091F0860FFF773
:105A800009FF681CC5B2082DEADB70BD70B505467C
:105A900000241848001D006820F0F0001549091D79
:105AA00008600846006840F080000860002615E0A5
:105AB00000201149091F0860FFF7ECFE01200F4983
:105AC000C1F8A0016006040E0B488038006808B1D8
:105AD000601CC4B2FFF7DEFE701CC6B2082EE7DB06
